{"abi":[{"type":"constructor","inputs":[{"name":"_token","type":"address","internalType":"address"}],"stateMutability":"nonpayable"},{"type":"function","name":"allowance","inputs":[{"name":"owner","type":"address","internalType":"address"},{"name":"spender","type":"address","internalType":"address"}],"outputs":[{"name":"","type":"uint256","internalType":"uint256"}],"stateMutability":"view"},{"type":"function","name":"approve","inputs":[{"name":"spender","type":"address","internalType":"address"},{"name":"amount","type":"uint256","internalType":"uint256"}],"outputs":[{"name":"","type":"bool","internalType":"bool"}],"stateMutability":"nonpayable"},{"type":"function","name":"balanceOf","inputs":[{"name":"account","type":"address","internalType":"address"}],"outputs":[{"name":"","type":"uint256","internalType":"uint256"}],"stateMutability":"view"},{"type":"function","name":"decimals","inputs":[],"outputs":[{"name":"","type":"uint8","internalType":"uint8"}],"stateMutability":"view"},{"type":"function","name":"decreaseAllowance","inputs":[{"name":"spender","type":"address","internalType":"address"},{"name":"subtractedValue","type":"uint256","internalType":"uint256"}],"outputs":[{"name":"","type":"bool","internalType":"bool"}],"stateMutability":"nonpayable"},{"type":"function","name":"deposit","inputs":[{"name":"amount","type":"uint256","internalType":"uint256"}],"outputs":[{"name":"","type":"uint256","internalType":"uint256"}],"stateMutability":"nonpayable"},{"type":"function","name":"getYield","inputs":[{"name":"account","type":"address","internalType":"address"}],"outputs":[{"name":"","type":"uint256","internalType":"uint256"}],"stateMutability":"view"},{"type":"function","name":"increaseAllowance","inputs":[{"name":"spender","type":"address","internalType":"address"},{"name":"addedValue","type":"uint256","internalType":"uint256"}],"outputs":[{"name":"","type":"bool","internalType":"bool"}],"stateMutability":"nonpayable"},{"type":"function","name":"name","inputs":[],"outputs":[{"name":"","type":"string","internalType":"string"}],"stateMutability":"view"},{"type":"function","name":"symbol","inputs":[],"outputs":[{"name":"","type":"string","internalType":"string"}],"stateMutability":"view"},{"type":"function","name":"token","inputs":[],"outputs":[{"name":"","type":"address","internalType":"contract IERC20"}],"stateMutability":"view"},{"type":"function","name":"totalAssets","inputs":[],"outputs":[{"name":"","type":"uint256","internalType":"uint256"}],"stateMutability":"view"},{"type":"function","name":"totalSupply","inputs":[],"outputs":[{"name":"","type":"uint256","internalType":"uint256"}],"stateMutability":"view"},{"type":"function","name":"transfer","inputs":[{"name":"to","type":"address","internalType":"address"},{"name":"amount","type":"uint256","internalType":"uint256"}],"outputs":[{"name":"","type":"bool","internalType":"bool"}],"stateMutability":"nonpayable"},{"type":"function","name":"transferFrom","inputs":[{"name":"from","type":"address","internalType":"address"},{"name":"to","type":"address","internalType":"address"},{"name":"amount","type":"uint256","internalType":"uint256"}],"outputs":[{"name":"","type":"bool","internalType":"bool"}],"stateMutability":"nonpayable"},{"type":"function","name":"withdraw","inputs":[{"name":"shares","type":"uint256","internalType":"uint256"}],"outputs":[],"stateMutability":"nonpayable"},{"type":"event","name":"Approval","inputs":[{"name":"owner","type":"address","indexed":true,"internalType":"address"},{"name":"spender","type":"address","indexed":true,"internalType":"address"},{"name":"value","type":"uint256","indexed":false,"internalType":"uint256"}],"anonymous":false},{"type":"event","name":"Deposit","inputs":[{"name":"account","type":"address","indexed":true,"internalType":"address"},{"name":"amount","type":"uint256","indexed":false,"internalType":"uint256"},{"name":"shares","type":"uint256","indexed":false,"internalType":"uint256"},{"name":"totalAssets","type":"uint256","indexed":false,"internalType":"uint256"}],"anonymous":false},{"type":"event","name":"Transfer","inputs":[{"name":"from","type":"address","indexed":true,"internalType":"address"},{"name":"to","type":"address","indexed":true,"internalType":"address"},{"name":"value","type":"uint256","indexed":false,"internalType":"uint256"}],"anonymous":false},{"type":"event","name":"Withdraw","inputs":[{"name":"account","type":"address","indexed":true,"internalType":"address"},{"name":"sharesBurned","type":"uint256","indexed":false,"internalType":"uint256"},{"name":"tokenWithdraw","type":"uint256","indexed":false,"internalType":"uint256"},{"name":"newTotalAssets","type":"uint256","indexed":false,"internalType":"uint256"},{"name":"newUserShares","type":"uint256","indexed":false,"internalType":"uint256"}],"anonymous":false},{"type":"error","name":"NotEnoughShares","inputs":[]},{"type":"error","name":"NothingShares","inputs":[]},{"type":"error","name":"ZeroAmount","inputs":[]}],"bytecode":{"object":"0x60a060405234801561000f575f5ffd5b5060405161249638038061249683398181016040528101906100319190610157565b6040518060400160405280600b81526020017f5969656c64205661756c740000000000000000000000000000000000000000008152506040518060400160405280600681526020017f595661756c74000000000000000000000000000000000000000000000000000081525081600390816100ac91906103bf565b5080600490816100bc91906103bf565b5050508073ffffffffffffffffffffffffffffffffffffffff1660808173ffffffffffffffffffffffffffffffffffffffff16815250505061048e565b5f5ffd5b5f73ffffffffffffffffffffffffffffffffffffffff82169050919050565b5f610126826100fd565b9050919050565b6101368161011c565b8114610140575f5ffd5b50565b5f815190506101518161012d565b92915050565b5f6020828403121561016c5761016b6100f9565b5b5f61017984828501610143565b91505092915050565b5f81519050919050565b7f4e487b71000000000000000000000000000000000000000000000000000000005f52604160045260245ffd5b7f4e487b71000000000000000000000000000000000000000000000000000000005f52602260045260245ffd5b5f60028204905060018216806101fd57607f821691505b6020821081036102105761020f6101b9565b5b50919050565b5f819050815f5260205f209050919050565b5f6020601f8301049050919050565b5f82821b905092915050565b5f600883026102727fffffffffffffffffffffffffffffffffffffffffffffffffffffffffffffffff82610237565b61027c8683610237565b95508019841693508086168417925050509392505050565b5f819050919050565b5f819050919050565b5f6102c06102bb6102b684610294565b61029d565b610294565b9050919050565b5f819050919050565b6102d9836102a6565b6102ed6102e5826102c7565b848454610243565b825550505050565b5f5f905090565b6103046102f5565b61030f8184846102d0565b505050565b5b81811015610332576103275f826102fc565b600181019050610315565b5050565b601f8211156103775761034881610216565b61035184610228565b81016020851015610360578190505b61037461036c85610228565b830182610314565b50505b505050565b5f82821c905092915050565b5f6103975f198460080261037c565b1980831691505092915050565b5f6103af8383610388565b9150826002028217905092915050565b6103c882610182565b67ffffffffffffffff8111156103e1576103e061018c565b5b6103eb82546101e6565b6103f6828285610336565b5f60209050601f831160018114610427575f8415610415578287015190505b61041f85826103a4565b865550610486565b601f19841661043586610216565b5f5b8281101561045c57848901518255600182019150602085019450602081019050610437565b868310156104795784890151610475601f891682610388565b8355505b6001600288020188555050505b505050505050565b608051611fdb6104bb5f395f8181610571015281816108d501528181610a0d0152610b8d0152611fdb5ff3fe608060405234801561000f575f5ffd5b50600436106100fe575f3560e01c806364c3397711610095578063a9059cbb11610064578063a9059cbb146102d4578063b6b55f2514610304578063dd62ed3e14610334578063fc0c546a14610364576100fe565b806364c339771461022657806370a082311461025657806395d89b4114610286578063a457c2d7146102a4576100fe565b806323b872dd116100d157806323b872dd1461018c5780632e1a7d4d146101bc578063313ce567146101d857806339509351146101f6576100fe565b806301e1d1141461010257806306fdde0314610120578063095ea7b31461013e57806318160ddd1461016e575b5f5ffd5b61010a610382565b60405161011791906113a3565b60405180910390f35b610128610388565b604051610135919061142c565b60405180910390f35b610158600480360381019061015391906114d4565b610418565b604051610165919061152c565b60405180910390f35b61017661043a565b60405161018391906113a3565b60405180910390f35b6101a660048036038101906101a19190611545565b610443565b6040516101b3919061152c565b60405180910390f35b6101d660048036038101906101d19190611595565b610471565b005b6101e061066f565b6040516101ed91906115db565b60405180910390f35b610210600480360381019061020b91906114d4565b610677565b60405161021d919061152c565b60405180910390f35b610240600480360381019061023b91906115f4565b6106ad565b60405161024d91906113a3565b60405180910390f35b610270600480360381019061026b91906115f4565b61072b565b60405161027d91906113a3565b60405180910390f35b61028e610770565b60405161029b919061142c565b60405180910390f35b6102be60048036038101906102b991906114d4565b610800565b6040516102cb919061152c565b60405180910390f35b6102ee60048036038101906102e991906114d4565b610875565b6040516102fb919061152c565b60405180910390f35b61031e60048036038101906103199190611595565b610897565b60405161032b91906113a3565b60405180910390f35b61034e6004803603810190610349919061161f565b610b09565b60405161035b91906113a3565b60405180910390f35b61036c610b8b565b60405161037991906116b8565b60405180910390f35b60055481565b606060038054610397906116fe565b80601f01602080910402602001604051908101604052809291908181526020018280546103c3906116fe565b801561040e5780601f106103e55761010080835404028352916020019161040e565b820191905f5260205f20905b8154815290600101906020018083116103f157829003601f168201915b5050505050905090565b5f5f610422610baf565b905061042f818585610bb6565b600191505092915050565b5f600254905090565b5f5f61044d610baf565b905061045a858285610d79565b610465858585610e04565b60019150509392505050565b805f81036104ab576040517f1f2a200500000000000000000000000000000000000000000000000000000000815260040160405180910390fd5b6104b43361072b565b8211156104ed576040517ff15ed21400000000000000000000000000000000000000000000000000000000815260040160405180910390fd5b5f6104f661043a565b90505f8103610531576040517f5912609900000000000000000000000000000000000000000000000000000000815260040160405180910390fd5b5f8160055485610541919061175b565b61054b91906117c9565b90508060055f82825461055e91906117f9565b9250508190555061056f3385611070565b7f000000000000000000000000000000000000000000000000000000000000000073ffffffffffffffffffffffffffffffffffffffff1663a9059cbb33836040518363ffffffff1660e01b81526004016105ca92919061183b565b6020604051808303815f875af11580156105e6573d5f5f3e3d5ffd5b505050506040513d601f19601f8201168201806040525081019061060a919061188c565b503373ffffffffffffffffffffffffffffffffffffffff167fe08737ac48a1dab4b1a46c7dc9398bd5bfc6d7ad6fabb7cd8caa254de14def3585836005546106513361072b565b60405161066194939291906118b7565b60405180910390a250505050565b5f6012905090565b5f5f610681610baf565b90506106a28185856106938589610b09565b61069d91906118fa565b610bb6565b600191505092915050565b5f5f6106b88361072b565b90505f81036106ca575f915050610726565b5f6106d361043a565b90505f81036106e6575f92505050610726565b5f81600554846106f6919061175b565b61070091906117c9565b90505f6064600583610712919061175b565b61071c91906117c9565b9050809450505050505b919050565b5f5f5f8373ffffffffffffffffffffffffffffffffffffffff1673ffffffffffffffffffffffffffffffffffffffff1681526020019081526020015f20549050919050565b60606004805461077f906116fe565b80601f01602080910402602001604051908101604052809291908181526020018280546107ab906116fe565b80156107f65780601f106107cd576101008083540402835291602001916107f6565b820191905f5260205f20905b8154815290600101906020018083116107d957829003601f168201915b5050505050905090565b5f5f61080a610baf565b90505f6108178286610b09565b90508381101561085c576040517f08c379a00000000000000000000000000000000000000000000000000000000081526004016108539061199d565b60405180910390fd5b6108698286868403610bb6565b60019250505092915050565b5f5f61087f610baf565b905061088c818585610e04565b600191505092915050565b5f815f81036108d2576040517f1f2a200500000000000000000000000000000000000000000000000000000000815260040160405180910390fd5b827f000000000000000000000000000000000000000000000000000000000000000073ffffffffffffffffffffffffffffffffffffffff1663dd62ed3e33306040518363ffffffff1660e01b815260040161092e9291906119bb565b602060405180830381865afa158015610949573d5f5f3e3d5ffd5b505050506040513d601f19601f8201168201806040525081019061096d91906119f6565b10156109ae576040517f08c379a00000000000000000000000000000000000000000000000000000000081526004016109a590611a6b565b60405180910390fd5b5f5f6109b861043a565b90505f60055490508560055f8282546109d191906118fa565b925050819055505f82036109e757859250610a01565b8082876109f4919061175b565b6109fe91906117c9565b92505b610a0b3384611233565b7f000000000000000000000000000000000000000000000000000000000000000073ffffffffffffffffffffffffffffffffffffffff166323b872dd3330896040518463ffffffff1660e01b8152600401610a6893929190611a89565b6020604051808303815f875af1158015610a84573d5f5f3e3d5ffd5b505050506040513d601f19601f82011682018060405250810190610aa8919061188c565b503373ffffffffffffffffffffffffffffffffffffffff167f36af321ec8d3c75236829c5317affd40ddb308863a1236d2d277a4025cccee1e8785600554604051610af593929190611abe565b60405180910390a282945050505050919050565b5f60015f8473ffffffffffffffffffffffffffffffffffffffff1673ffffffffffffffffffffffffffffffffffffffff1681526020019081526020015f205f8373ffffffffffffffffffffffffffffffffffffffff1673ffffffffffffffffffffffffffffffffffffffff1681526020019081526020015f2054905092915050565b7f000000000000000000000000000000000000000000000000000000000000000081565b5f33905090565b5f73ffffffffffffffffffffffffffffffffffffffff168373ffffffffffffffffffffffffffffffffffffffff1603610c24576040517f08c379a0000000000000000000000000000000000000000000000000000000008152600401610c1b90611b63565b60405180910390fd5b5f73ffffffffffffffffffffffffffffffffffffffff168273ffffffffffffffffffffffffffffffffffffffff1603610c92576040517f08c379a0000000000000000000000000000000000000000000000000000000008152600401610c8990611bf1565b60405180910390fd5b8060015f8573ffffffffffffffffffffffffffffffffffffffff1673ffffffffffffffffffffffffffffffffffffffff1681526020019081526020015f205f8473ffffffffffffffffffffffffffffffffffffffff1673ffffffffffffffffffffffffffffffffffffffff1681526020019081526020015f20819055508173ffffffffffffffffffffffffffffffffffffffff168373ffffffffffffffffffffffffffffffffffffffff167f8c5be1e5ebec7d5bd14f71427d1e84f3dd0314c0f7b2291e5b200ac8c7c3b92583604051610d6c91906113a3565b60405180910390a3505050565b5f610d848484610b09565b90507fffffffffffffffffffffffffffffffffffffffffffffffffffffffffffffffff8114610dfe5781811015610df0576040517f08c379a0000000000000000000000000000000000000000000000000000000008152600401610de790611c59565b60405180910390fd5b610dfd8484848403610bb6565b5b50505050565b5f73ffffffffffffffffffffffffffffffffffffffff168373ffffffffffffffffffffffffffffffffffffffff1603610e72576040517f08c379a0000000000000000000000000000000000000000000000000000000008152600401610e6990611ce7565b60405180910390fd5b5f73ffffffffffffffffffffffffffffffffffffffff168273ffffffffffffffffffffffffffffffffffffffff1603610ee0576040517f08c379a0000000000000000000000000000000000000000000000000000000008152600401610ed790611d75565b60405180910390fd5b610eeb838383611381565b5f5f5f8573ffffffffffffffffffffffffffffffffffffffff1673ffffffffffffffffffffffffffffffffffffffff1681526020019081526020015f2054905081811015610f6e576040517f08c379a0000000000000000000000000000000000000000000000000000000008152600401610f6590611e03565b60405180910390fd5b8181035f5f8673ffffffffffffffffffffffffffffffffffffffff1673ffffffffffffffffffffffffffffffffffffffff1681526020019081526020015f2081905550815f5f8573ffffffffffffffffffffffffffffffffffffffff1673ffffffffffffffffffffffffffffffffffffffff1681526020019081526020015f205f82825401925050819055508273ffffffffffffffffffffffffffffffffffffffff168473ffffffffffffffffffffffffffffffffffffffff167fddf252ad1be2c89b69c2b068fc378daa952ba7f163c4a11628f55a4df523b3ef8460405161105791906113a3565b60405180910390a361106a848484611386565b50505050565b5f73ffffffffffffffffffffffffffffffffffffffff168273ffffffffffffffffffffffffffffffffffffffff16036110de576040517f08c379a00000000000000000000000000000000000000000000000000000000081526004016110d590611e91565b60405180910390fd5b6110e9825f83611381565b5f5f5f8473ffffffffffffffffffffffffffffffffffffffff1673ffffffffffffffffffffffffffffffffffffffff1681526020019081526020015f205490508181101561116c576040517f08c379a000000000000000000000000000000000000000000000000000000000815260040161116390611f1f565b60405180910390fd5b8181035f5f8573ffffffffffffffffffffffffffffffffffffffff1673ffffffffffffffffffffffffffffffffffffffff1681526020019081526020015f20819055508160025f82825403925050819055505f73ffffffffffffffffffffffffffffffffffffffff168373ffffffffffffffffffffffffffffffffffffffff167fddf252ad1be2c89b69c2b068fc378daa952ba7f163c4a11628f55a4df523b3ef8460405161121b91906113a3565b60405180910390a361122e835f84611386565b505050565b5f73ffffffffffffffffffffffffffffffffffffffff168273ffffffffffffffffffffffffffffffffffffffff16036112a1576040517f08c379a000000000000000000000000000000000000000000000000000000000815260040161129890611f87565b60405180910390fd5b6112ac5f8383611381565b8060025f8282546112bd91906118fa565b92505081905550805f5f8473ffffffffffffffffffffffffffffffffffffffff1673ffffffffffffffffffffffffffffffffffffffff1681526020019081526020015f205f82825401925050819055508173ffffffffffffffffffffffffffffffffffffffff165f73ffffffffffffffffffffffffffffffffffffffff167fddf252ad1be2c89b69c2b068fc378daa952ba7f163c4a11628f55a4df523b3ef8360405161136a91906113a3565b60405180910390a361137d5f8383611386565b5050565b505050565b505050565b5f819050919050565b61139d8161138b565b82525050565b5f6020820190506113b65f830184611394565b92915050565b5f81519050919050565b5f82825260208201905092915050565b8281835e5f83830152505050565b5f601f19601f8301169050919050565b5f6113fe826113bc565b61140881856113c6565b93506114188185602086016113d6565b611421816113e4565b840191505092915050565b5f6020820190508181035f83015261144481846113f4565b905092915050565b5f5ffd5b5f73ffffffffffffffffffffffffffffffffffffffff82169050919050565b5f61147982611450565b9050919050565b6114898161146f565b8114611493575f5ffd5b50565b5f813590506114a481611480565b92915050565b6114b38161138b565b81146114bd575f5ffd5b50565b5f813590506114ce816114aa565b92915050565b5f5f604083850312156114ea576114e961144c565b5b5f6114f785828601611496565b9250506020611508858286016114c0565b9150509250929050565b5f8115159050919050565b61152681611512565b82525050565b5f60208201905061153f5f83018461151d565b92915050565b5f5f5f6060848603121561155c5761155b61144c565b5b5f61156986828701611496565b935050602061157a86828701611496565b925050604061158b868287016114c0565b9150509250925092565b5f602082840312156115aa576115a961144c565b5b5f6115b7848285016114c0565b91505092915050565b5f60ff82169050919050565b6115d5816115c0565b82525050565b5f6020820190506115ee5f8301846115cc565b92915050565b5f602082840312156116095761160861144c565b5b5f61161684828501611496565b91505092915050565b5f5f604083850312156116355761163461144c565b5b5f61164285828601611496565b925050602061165385828601611496565b9150509250929050565b5f819050919050565b5f61168061167b61167684611450565b61165d565b611450565b9050919050565b5f61169182611666565b9050919050565b5f6116a282611687565b9050919050565b6116b281611698565b82525050565b5f6020820190506116cb5f8301846116a9565b92915050565b7f4e487b71000000000000000000000000000000000000000000000000000000005f52602260045260245ffd5b5f600282049050600182168061171557607f821691505b602082108103611728576117276116d1565b5b50919050565b7f4e487b71000000000000000000000000000000000000000000000000000000005f52601160045260245ffd5b5f6117658261138b565b91506117708361138b565b925082820261177e8161138b565b915082820484148315176117955761179461172e565b5b5092915050565b7f4e487b71000000000000000000000000000000000000000000000000000000005f52601260045260245ffd5b5f6117d38261138b565b91506117de8361138b565b9250826117ee576117ed61179c565b5b828204905092915050565b5f6118038261138b565b915061180e8361138b565b92508282039050818111156118265761182561172e565b5b92915050565b6118358161146f565b82525050565b5f60408201905061184e5f83018561182c565b61185b6020830184611394565b9392505050565b61186b81611512565b8114611875575f5ffd5b50565b5f8151905061188681611862565b92915050565b5f602082840312156118a1576118a061144c565b5b5f6118ae84828501611878565b91505092915050565b5f6080820190506118ca5f830187611394565b6118d76020830186611394565b6118e46040830185611394565b6118f16060830184611394565b95945050505050565b5f6119048261138b565b915061190f8361138b565b92508282019050808211156119275761192661172e565b5b92915050565b7f45524332303a2064656372656173656420616c6c6f77616e63652062656c6f775f8201527f207a65726f000000000000000000000000000000000000000000000000000000602082015250565b5f6119876025836113c6565b91506119928261192d565b604082019050919050565b5f6020820190508181035f8301526119b48161197b565b9050919050565b5f6040820190506119ce5f83018561182c565b6119db602083018461182c565b9392505050565b5f815190506119f0816114aa565b92915050565b5f60208284031215611a0b57611a0a61144c565b5b5f611a18848285016119e2565b91505092915050565b7f496e73756666696369656e7420616c6c6f77616e6365000000000000000000005f82015250565b5f611a556016836113c6565b9150611a6082611a21565b602082019050919050565b5f6020820190508181035f830152611a8281611a49565b9050919050565b5f606082019050611a9c5f83018661182c565b611aa9602083018561182c565b611ab66040830184611394565b949350505050565b5f606082019050611ad15f830186611394565b611ade6020830185611394565b611aeb6040830184611394565b949350505050565b7f45524332303a20617070726f76652066726f6d20746865207a65726f206164645f8201527f7265737300000000000000000000000000000000000000000000000000000000602082015250565b5f611b4d6024836113c6565b9150611b5882611af3565b604082019050919050565b5f6020820190508181035f830152611b7a81611b41565b9050919050565b7f45524332303a20617070726f766520746f20746865207a65726f2061646472655f8201527f7373000000000000000000000000000000000000000000000000000000000000602082015250565b5f611bdb6022836113c6565b9150611be682611b81565b604082019050919050565b5f6020820190508181035f830152611c0881611bcf565b9050919050565b7f45524332303a20696e73756666696369656e7420616c6c6f77616e63650000005f82015250565b5f611c43601d836113c6565b9150611c4e82611c0f565b602082019050919050565b5f6020820190508181035f830152611c7081611c37565b9050919050565b7f45524332303a207472616e736665722066726f6d20746865207a65726f2061645f8201527f6472657373000000000000000000000000000000000000000000000000000000602082015250565b5f611cd16025836113c6565b9150611cdc82611c77565b604082019050919050565b5f6020820190508181035f830152611cfe81611cc5565b9050919050565b7f45524332303a207472616e7366657220746f20746865207a65726f20616464725f8201527f6573730000000000000000000000000000000000000000000000000000000000602082015250565b5f611d5f6023836113c6565b9150611d6a82611d05565b604082019050919050565b5f6020820190508181035f830152611d8c81611d53565b9050919050565b7f45524332303a207472616e7366657220616d6f756e74206578636565647320625f8201527f616c616e63650000000000000000000000000000000000000000000000000000602082015250565b5f611ded6026836113c6565b9150611df882611d93565b604082019050919050565b5f6020820190508181035f830152611e1a81611de1565b9050919050565b7f45524332303a206275726e2066726f6d20746865207a65726f206164647265735f8201527f7300000000000000000000000000000000000000000000000000000000000000602082015250565b5f611e7b6021836113c6565b9150611e8682611e21565b604082019050919050565b5f6020820190508181035f830152611ea881611e6f565b9050919050565b7f45524332303a206275726e20616d6f756e7420657863656564732062616c616e5f8201527f6365000000000000000000000000000000000000000000000000000000000000602082015250565b5f611f096022836113c6565b9150611f1482611eaf565b604082019050919050565b5f6020820190508181035f830152611f3681611efd565b9050919050565b7f45524332303a206d696e7420746f20746865207a65726f2061646472657373005f82015250565b5f611f71601f836113c6565b9150611f7c82611f3d565b602082019050919050565b5f6020820190508181035f830152611f9e81611f65565b905091905056fea2646970667358221220332e62052abeed369e7d430a1e256919024d60a5577c7dc450d50ded8e26908864736f6c634300081d0033","linkReferences":{}},"methodIdentifiers":{"allowance(address,address)":"dd62ed3e","approve(address,uint256)":"095ea7b3","balanceOf(address)":"70a08231","decimals()":"313ce567","decreaseAllowance(address,uint256)":"a457c2d7","deposit(uint256)":"b6b55f25","getYield(address)":"64c33977","increaseAllowance(address,uint256)":"39509351","name()":"06fdde03","symbol()":"95d89b41","token()":"fc0c546a","totalAssets()":"01e1d114","totalSupply()":"18160ddd","transfer(address,uint256)":"a9059cbb","transferFrom(address,address,uint256)":"23b872dd","withdraw(uint256)":"2e1a7d4d"},"id":29}